:020000040800F2
:10000000E80A0020A101000839160008EB150008D5
:10001000351600083F120008D11D0008000000003E
:10002000000000000000000000000000591C000853
:10003000B914000800000000371C00086D1D0008FE
:10004000BB010008BB010008BB010008BB010008A0
:10005000BB010008BB010008BB010008BB01000890
:10006000BB010008BB010008BB010008BB01000880
:10007000BB010008BB010008BB010008BB01000870
:10008000BB010008BB010008BB010008BB01000860
:10009000BB010008BB010008BB010008BB01000850
:1000A000BB010008BB010008BB010008BB01000840
:1000B000BB010008BB010008BB010008BB01000830
:1000C000BB010008BB010008BB010008BB01000820
:1000D000BB010008BB010008BB010008BB01000810
:1000E000BB010008BB010008BB01000800F002F8DA
:1000F00000F047F80AA090E8000C82448344AAF17B
:100100000107DA4501D100F03CF8AFF2090EBAE878
:100110000F0013F0010F18BFFB1A43F0010318473B
:100120006C4500008C450000103A24BF78C878C1A7
:10013000FAD8520724BF30C830C144BF04680C60ED
:10014000704700000023002400250026103A28BF35
:1001500078C1FBD8520728BF30C148BF0B60704739
:10016000662902F0C681002070471FB500F02AFB07
:1001700004000020002101F027FFE0601FBD10B542
:1001800010BD00F01FFC1146FFF7EFFF01F098FED5
:1001900000F03DFC03B4FFF7F2FF03BC00F080FC6D
:1001A0000948804709480047FEE7FEE7FEE7FEE70B
:1001B000FEE7FEE7FEE7FEE7FEE7FEE70448054947
:1001C000054A064B70470000711D0008ED0000084D
:1001D000E8040020E80A0020E8060020E8060020E5
:1001E0000FB41CB5074B06AA7B44694600900598DE
:1001F00000F0CFFA0020694600F0DEFA1CBC5DF882
:1002000014FB0000CD05000070B504468569006848
:10021000C10601D5302600E02026C00707D070BDFA
:10022000D4E9012130469047206A401C20626D1EAF
:10023000F6D570BD70B5044685690078C00707D152
:1002400070BDD4E9012120209047206A401C206223
:100250006D1EF6D570BD2DE9F0474FF0000A8946B6
:100260000446C0F820A02046E1688847002876D0E0
:10027000252806D0D4E901219047206A401C20623D
:10028000F1E7E168204600258847C4F81CA006462F
:100290000027C4F818A02A2E09D0304601F0AEFD80
:1002A00038B304EB8708303EC8F8186019E059F8F5
:1002B000041B204604EB87029161E1688847012F07
:1002C000064618D1E069002820DA25F020051DE057
:1002D000D8F8180000EB800006EB40003038C8F872
:1002E00018002046E1688847064601F087FD00288F
:1002F000EED1012F0AD02E2E08D12046E168884782
:100300007F1C0646022F45F02005C4DBA0690028AB
:1003100003DA404245F00105A061E80701D025F06D
:100320001005B6B1A6F14100192802D8203645F4CF
:1003300000654A463146204625604D46FFF710FFCE
:1003400058B1012806D0ED1D25F0070000F108097D
:1003500089E704E005F1040985E730468AE7206A69
:10036000BDE8F08770477047704770472DE9FF4F31
:100370000C461E464FF0FF378BB0D2E90001DDF886
:1003800060800A908A46C1F30A5505B93D460021AE
:1003900008464FF00000BAF1000F00F4400005DA03
:1003A00000EB80004FF4400101EA50004FEA905901
:1003B000B9F1010F00DDB9460A9850EA4A000ED0A3
:1003C00044F61050A5F2FF3545432F14B8F1000F45
:1003D0001ED07542291E1EDDC9F100021CE0B8F1D5
:1003E000010F4FF0000001D0302103E0F24305E09F
:1003F0002154401CB042FBDB304600220021215436
:100400000B99C1F80880C1E900200FB0BDE8F08F5A
:10041000BD1B6D1CDEE74A4600DA694206A800F003
:100420005BFA06AB93E8070003AB83E8070050468E
:100430000A9900F03CFB8DE80700A0F500501F383A
:1004400000900398002D0ADD42F21F014A4608443D
:10045000002303A90390684600F0A5FD09E0A0F57C
:1004600000504A461F38002303A90390684600F055
:10047000AFFD8DE807000004000C03D04FF0FF3003
:10048000410800E01046B8F1000F03D000220092AE
:1004900015461EE0751E05D400F098F930326255FD
:1004A0006D1EF9D5B3460122084302D000227F1CFD
:1004B00004E02078302801D100227F1E002A09970D
:1004C00084D01DE0112D07DA00F080F9303262553A
:1004D0006D1C50EA0102F5D1084302D00098C8B162
:1004E0000EE00021681E05E0235C625C6354225428
:1004F000401E491C8142F7DBAB46A81B401E0990F9
:10050000002004F80B000B98099AC0F80880C0E995
:10051000002B7AE711264FF0000857E72DE9F04F3E
:1005200088460446D21D22F0070191B0D1E90001AE
:10053000CDE90A0101F04EFC02460B98C00F01D034
:100540002D2007E02068810701D52B2002E0202123
:1005500001EAC000032A099001D0072A05DB0346FF
:100560004146204600F078F90BE12078800601D55D
:10057000E06900E00620B8F1650F814606D0B8F1C9
:10058000660F18D0B8F1670F70D131E00020B9F1D3
:10059000110F009001DB112301E009F101030AAA08
:1005A00001A90CA8FFF7E2FEDDE90C70002609F1B5
:1005B0000105834647E001204B4600904FF000477D
:1005C0000AAA01A90CA8FFF7D1FEDDE90DB00C992C
:1005D0005D46002610B909F101000D18B9EB0500C0
:1005E00003D4C0F1FF3609F10105A5EB09002BE0AA
:1005F000B9F1010F01DA4FF001090020B9F1110F33
:100600000090484601DD112300E003460AAA01A933
:100610000CA8FFF7ABFEDDE90C704D4600268346C3
:10062000207800070AD4AB4500DA5D4601A8012D09
:1006300004DD411911F8011C302907D04F4502DAB9
:1006400017F1040F04DA012082460FE06D1EEEE779
:10065000002F02DCED1B3E4403E0781CA84200DDC5
:100660007D1CB81B00F1010A4FF0004720780007FD
:1006700003D4AA4501DB4FF0FF3A0021B7F1004F48
:100680000DF143088DF8431024D002202B23002FB6
:1006900001DA7F422D230A21021EA0F1010000DCB5
:1006A0005FB197FBF1FC97FBF1F201FB1C7C174655
:1006B0000CF1300C08F801CDEEE7A8F10100037051
:1006C0002188090501D5452100E06521A0F1010837
:1006D00000F8011C09980FA9A1EB0807FF1D00B144
:1006E0000120411901EBEA70A1693844081A401E43
:1006F000A0612078C00602D42046FFF785FD099846
:1007000028B1D4E901219047206A401C206220785A
:10071000C00622D52046FFF777FD1EE0002E04DB41
:10072000B34502DD01A8805D00E03020D4E901215D
:100730009047206A401C2062761CAAF101005FEA03
:10074000000A0AD100F03EF8C0680168405CD4E9B4
:1007500001219047206A401C2062281EA5F1010556
:10076000DCDC07E0D4E9012118F8010B9047206A8E
:10077000401C2062381EA7F10107F3DC2046FFF77A
:1007800059FD032011B041E601694A1C0261087855
:10079000704700B58FB0CDE90131002105910549C1
:1007A0007944CDE9031011466846FFF754FD0FB0B8
:1007B00000BD0000E5FFFFFF0A6802F8010B0A60B8
:1007C0007047000000487047A404002030B5B0F125
:1007D0000A024FEA900E71F100034EEA817EB0EBFF
:1007E0000E0061EB91014FEA101E4EEA017E10EB04
:1007F0000E0041EB11114FEA102E4EEA016E10EB84
:100800000E0041EB11214FEA104E4EEA014E10EB63
:100810000E0041EB1141401841F100014FEAD000B8
:1008200040EA41704FEAD10110EB80054FEA8104A4
:1008300044EA907444EB01046D1944EB0404521B28
:10084000A3414FF0000348BF0A3200D530BD401C21
:1008500041F1000130BD00002DE9F0411F46044682
:1008600003260168072A01F4006004DB08B116A51D
:1008700005E016A503E008B115A500E015A521F0D7
:1008800010002060A069C01EA0610FB1401EA061D1
:100890002046FFF7B9FC4FB1D4E901213846904713
:1008A000206A401C2062C01C206206E0206AFAE731
:1008B000D4E9012115F8010B9047761EF8D22046A5
:1008C000FFF7B8FCBDE8F0814E414E006E616E004E
:1008D000494E4600696E66002DE9F047814616468E
:1008E0008AB0354878440DC88DE80D003248784408
:1008F000801C03AC0DC884E80D0041F69B30084411
:10090000372190FBF1F290FBF1F5A5F1800501FB99
:1009100012041B3C02D56442012000E00020DFF8F5
:1009200098A080460027FA44AAF1BE0A0EE0E0072C
:100930000AD03246684607EB470101230AEB8101E2
:1009400000F046FB8DE8070064107F1C002CEED100
:10095000194F7F44AE3F19E0E80715D007EB0410AC
:100960000DF1180A90E80E008AE80E00C068F04207
:1009700001D1981908903246012306A903A800F076
:1009800027FB03AB83E807006D10641C002DE3D147
:100990004FF0010332466946B8F1000F03A802D0B8
:1009A00000F001FB01E000F013FBC9E90001C9F808
:1009B00008200AB0BDE8F0878C3D00000048704771
:1009C000840400207546FFF7F9FFAE46050069462E
:1009D000534620F00700854618B020B5FFF7EEFB20
:1009E000BDE820404FF000064FF000074FF0000830
:1009F0004FF0000B21F00701AC46ACE8C009ACE8B1
:100A0000C009ACE8C009ACE8C0098D46704710B514
:100A10000446AFF300802046BDE81040FFF7BABBA4
:100A20004FF0013C50F8042B51F8043B9A4221D17D
:100A3000A2EB0C03934313EACC1317D150F8042B09
:100A400051F8043B9A4215D1A2EB0C03934313EAED
:100A5000CC130BD150F8042B51F8043B9A4209D126
:100A6000A2EB0C03934313EACC13DBD04FF000004E
:100A7000704700BFD01A01BAB1FA81F101F0180134
:100A800022FA01F0CB40C1F12001DBB2C0B2C01AA2
:100A90002CFA01F3D11A914311EAC311E6D1704740
:100AA00001491820ABBEFEE72600020070475FEA4E
:100AB000400C08BF91F0000F4FEA8C234FEAC1228F
:100AC00043EA51514FEA1C5018BF00F5F0404FEA7D
:100AD000300018BF41F000415FEA6C5C00F02980F3
:100AE000BCF1FF3F08BF40F080407047130C06BFC9
:100AF00012044FF0100C4FF0000C130E04BF120242
:100B00000CF1080C130F04BF12010CF1040C930F2D
:100B100004BF92000CF1020CD30F04BF52000CF181
:100B2000010C11464FF00002A0F11F00A0EB0C00D9
:100B3000704711F0004F08BF704731F000413FF49B
:100B4000D5AF0B0C06BF09044FF0100C4FF0000C92
:100B50000B0E04BF09020CF1080C0B0F04BF0901B6
:100B60000CF1040C8B0F04BF89000CF1020CCB0FAD
:100B700004BF49000CF1010CCCF12003A0EB0C00E8
:100B800022FA03F302FA0CF241EA030100F1010038
:100B9000704720F07F4C80EA030023F07F47ACEBE6
:100BA000070303F57C5300F0004003F1FF032DE938
:100BB00080494FEA154B09B44FEA144325EA0B4E1E
:100BC00024EA03480FF2042606EB132749083E786F
:100BD0005FEA320203FB0667C7F5000707FB06F66C
:100BE0004FEA54374FEAD64606F1020607FB066C79
:100BF000CCF1005C4FEA1C472CEA074C07FB06F4DB
:100C00000CFB06F504EB15464FEA961634BF0020A0
:100C10004FF000404FEAD13706FB07FC4FEA1C4C6F
:100C20000CFB0BF7D21B03FB0CF761EB07010CFB72
:100C30000EF7B0EB074072EB17420CFB08F734BF1E
:100C4000A2EB0742B2EB074261EB17414FEA0C44BB
:100C50004FEA910706FB07FC4FEA1C4C0CFB0BF715
:100C6000B0EBC74072EB573203FB0CF734BFA2EB7B
:100C7000C742B2EBC74261EB57310CFB0EF7B0EB4A
:100C8000C70072EB57720CFB08F734BFA2EBC70228
:100C9000B2EBC70261EB5771039F4FEA816141EAF2
:100CA000921104EBCC044FEAD1374FEA826206FB83
:100CB00007FC42EA90124FEA80604FEA1C4C0CFBA2
:100CC0000BF7D21B03FB0CF761EB07010CFB0EF7D4
:100CD000B0EB074072EB17420CFB08F734BFA2EBF6
:100CE0000742B2EB074261EB17414FEA8C554FEADE
:100CF000910704EB9C2406FB07FC4FEA1C4C0CFB01
:100D00000BF7B0EBC74072EB573203FB0CF734BF65
:100D1000A2EBC742B2EBC74261EB57310CFB0EF7B7
:100D2000B0EBC70072EB57720CFB08F734BFA2EBB5
:100D3000C702B2EBC70261EB577115EB4C254FEAC6
:100D4000816141EA92114FEA82624FEAD13742EA69
:100D5000901206FB07FC44F100044FEA80604FEA62
:100D60001C4C0CFB0BF7D21B03FB0CF761EB0701D0
:100D70000CFB0EF7B0EB074072EB17420CFB08F7C9
:100D800034BFA2EB0742B2EB074261EB174115EB10
:100D90001C154FEA813141EA92414FEA823242EA20
:100DA00090424FEA80304FEA0C7644F1000448EA62
:100DB00003434EEA0B484FF0000EB2EB080C71EB08
:100DC000030724BF624639464EEB0E0E4FF0000B70
:100DD0000018524149414BEB0B0BB2EB080C71EB85
:100DE00003077BF1000B24BF624639464EEB0E0E23
:100DF0004FF0000B0018524149414BEB0B0BB2EB8B
:100E0000080C71EB03077BF1000B24BF62463946E7
:100E10004EEB0E0E51EA020718BF46F0010616EB24
:100E20000E7655F1000254F1000103D5BDE88901A9
:100E3000BDE80088BDE88901BDE80048B619524107
:100E400041EB0101A3F10103704780807F7E7D7C2F
:100E50007B7A7978777676757473727171706F6E4C
:100E60006E6D6C6C6B6A6A696868676666656464F7
:100E7000636362616160605F5F5E5E5D5D5C5C5B81
:100E80005B5A5A59595858575756565555555454F0
:100E9000535352525251515050504F4F4F4E4E4D4E
:100EA0004D4D4C4C4C4B4B4B4A4A4A49494948489A
:100EB00048474747474646464545454444444443DA
:100EC00043434342424242414141002B9C4630D47D
:100ED00077002BD01CB54FEA370703B44FF0100052
:100EE0004FF01001BAF1000F06D0BCF1000FDCBFCB
:100EF00040F0080040F008014FF000000FBCBDE8D2
:100F000010400BF1010BBBF1010F08BF5FEA17079F
:100F100022BF12F1010211F101014FF0004143F132
:100F2000000300F0004043EA00007047F9D357087F
:100F3000D0E746EA064613F1400F4FEA16461FDD9A
:100F400013F1200FDFBF16430A46002120335B4216
:100F5000BED0C3F1200746EA064602FA07F74FEA79
:100F6000164646EA0706C3F1200722FA03F201FA01
:100F700007F721FA03F14FF0000342EA0702A7E75F
:100F800046EA020646EA06464FEA164646EA0106E1
:100F9000BCBF46EA0646360C4FF000034FF0000295
:100FA0004FF0000194E72DE9804C9A46934670B4C7
:100FB00091E8380007C831EA400C48BF34EA430CD6
:100FC00003D5FFF7E6FDFFF780FFF0BCBDE8008C1E
:100FD0002DE9804C9A46934670B491E8380007C8D2
:100FE00010F0804F08BF13F0804F03D100F005F8D8
:100FF000FFF76BFFF0BCBDE8008C20F07F4780EA74
:10100000030023F07F4C07EB0C03A3F57C5300F0A7
:101010000040A3F1FE0392F0000F00F0B38095F0C2
:10102000000F00F077802DE901494FEA11404FEAA7
:10103000144621EA004800FB06FC24EA064708FBA8
:1010400006F607FB08F800FB07F718EB06484CEB21
:10105000164C4FEA124B18EB07484FEA15464CEB7B
:10106000174022EA0B4E0BFB06FC25EA06470EFB57
:1010700006F607FB0EFE0BFB07F71EEB064E4CEBCE
:10108000164C4FF000061EEB074E4CEB174B18EBBF
:101090000B0840F1000018EB0E0B58EB000840F174
:1010A00000008F1A4FF000013CBFC943661B14BFFC
:1010B000B5EB040C00213CBFC943F61B4FEA1744B3
:1010C0004EEA8E0E27EA04454FEA1C4704FB0762EE
:1010D0002CEA074C05FB07F70CFB05F604FB0CFCA0
:1010E00016EB074642EB174216EB0C4642EB1C424E
:1010F0001BEB060658EB0202414146EA9E0601D56B
:10110000BDE80189B619524141EB0101A3F1010388
:10111000BDE801894FEA14454FEA114724EA054624
:1011200021EA074C05FB07F406FB07F70CFB06F169
:1011300005FB0CFC11EB074144EB17444FEA124747
:1011400011EB0C4144EB1C4422EA074C05FB07F26F
:1011500006FB07F70CFB06F605FB0CFC16EB074637
:1011600042EB174216EB0C4642EB1C456A1854F151
:10117000000148BF7047B619524141EB0101A3F18C
:101180000103704795F0000F37D04FEA11424FEA44
:10119000144721EA024624EA074C02FB07F106FB4A
:1011A00007F70CFB06F402FB0CFC14EB074441EBC5
:1011B00017414FEA154714EB0C4441EB1C4125EA5B
:1011C000074C02FB07F506FB07F70CFB06F602FBD4
:1011D0000CFC16EB074645EB174516EB0C4645EBAA
:1011E0001C42121951F1000148BF7047B619524113
:1011F00041EB0101A3F1010370474FEA14454FEAA7
:10120000114724EA054621EA074C05FB07F106FBD6
:1012100007F70CFB06F24FF0000605FB0CFC12EB87
:10122000074241EB174112EB0C4251EB1C4148BF06
:101230007047921841EB0101A3F10103704700BF11
:10124000FEE7000010B50024002000F08FF804E055
:10125000601CC4B2012000F015FE40210E4800F0D1
:10126000B7F908B1C82CF3DBC82C01DB012010BD95
:10127000002404E0601CC4B2012000F003FE402101
:10128000054800F0A5F908B9F02CF3DBF02C01DBE0
:101290000120ECE70020EAE7000801402DE9F84FC3
:1012A00000F0CEF840F2EE2000F0ECFD00F0B2F8D5
:1012B000FFF7C8FFCC2000F0CFF8BE2000F0CCF83C
:1012C00000F096F8834600F093F80446072C08DDFA
:1012D000E043C4B26FEA0B0000F0FF0B4FF0000ACE
:1012E00001E04FF0010AA1464FEA09200FFA80F908
:1012F00009EB0B000FFA80F9484601F097F80090CF
:1013000000F0A6FF07460022084B00F0A3FE0546AA
:1013100000F070FE0FFA80F9BAF1000F02D04846D3
:10132000BDE8F88FC9F1000000B2F9E70000E43F22
:1013300008B50121042000F07FFC4020ADF800003A
:1013400010208DF8030003208DF80200694606483E
:1013500000F0B3F84021044800F045F900F05AF8D5
:10136000FFF770FF08BD00000008014038B50446D3
:101370000121042000F060FC4CB14020ADF80000D9
:1013800003208DF8020010208DF8030005E04020B6
:10139000ADF8000004208DF803006946014800F014
:1013A0008CF838BD0008014010B50120FFF7DEFFC2
:1013B00040210E4800F015F9022000F063FD4021A5
:1013C0000A4800F010F90020FFF7D0FF0C2000F0D1
:1013D00059FD4021054800F0FBF808B1012400E068
:1013E0000024322000F04EFD204610BD00080140D0
:1013F00070B50026012508E0FFF7D6FF0446E0019E
:1014000040EA6600C6B2681CC5B2082DF4DD30465D
:1014100070BD000010B50120FFF7A8FF402107486C
:1014200000F0DFF840F2EE2000F02CFD40210348F0
:1014300000F0D9F80F2000F025FD10BD0008014094
:1014400010B5FFF7E7FFFFF7FDFECC2000F004F832
:10145000442000F001F810BD70B504460120FFF7EC
:1014600085FF012522E004F00106641076B14021D9
:10147000104800F0B6F8022000F004FD40210D48AD
:1014800000F0B1F83C2000F0FDFC0DE040210948DF
:1014900000F0A7F83C2000F0F5FC4021054800F0E2
:1014A000A2F8022000F0EEFC681CC5B2082DDADDBF
:1014B00070BD00000008014070472DE9F041024670
:1014C00000250026002000230024002791F803C0F7
:1014D0000CF00F0591F803C00CF0100CBCF1000FDC
:1014E00003D091F802C04CEA050591F800C0BCF1A8
:1014F000000F31D0146800202BE04FF0010C0CFAE3
:1015000000F3B1F800C00CEA03069E4220D183002C
:101510004FF00F0C0CFA03F7BC4305FA03FC4CEA3E
:10152000040491F803C0BCF1280F06D14FF0010C60
:101530000CFA00FCC2F814C00AE091F803C0BCF138
:10154000480F05D14FF0010C0CFA00FCC2F810C096
:10155000401C0828D1D31460B1F800C0BCF1FF0FC3
:1015600034DD546800202EE000F1080C4FF0010833
:1015700008FA0CF3B1F800C00CEA03069E4221D130
:1015800083004FF00F0C0CFA03F7BC4305FA03FC81
:101590004CEA040491F803C0BCF1280F05D100F116
:1015A000080C08FA0CF8C2F8148091F803C0BCF1DA
:1015B000480F07D100F1080C4FF0010808FA0CF8A9
:1015C000C2F81080401C0828CED35460BDE8F081DA
:1015D0000246002093680B400BB1012000E0002080
:1015E0007047416170470161704700BFFEE703200B
:1015F00000BF011EA0F10102D0B2FAD17047000075
:1016000008B50121042000F017FB10208DF803001D
:101610000001ADF8000003208DF80200694604487F
:10162000FFF74BFF4FF480710148FFF7DAFF08BD69
:101630000008014000BFFEE77047000070B50024BD
:101640000CE0002506E00020074901EBC501085524
:10165000681CC5B2802DF6DB601CC4B2082CF0DB20
:1016600000F024F970BD000004000020F0B514461D
:101670000B46CF1701EB5777C7F3C702CF1701EB24
:101680005777FF10A1EBC707FEB20123B340DDB2CD
:101690004CB1134B03EBC0039B5C2B43104F07EB88
:1016A000C007BB541AE00E4B03EBC0039B5CDB434B
:1016B0000B4F07EBC007BB54094B03EBC0039B5C0C
:1016C0002B43074F07EBC007BB54054B03EBC0038D
:1016D0009B5CDB43024F07EBC007BB54F0BD00002F
:1016E0000400002010B54FF400710C48FFF77BFF99
:1016F0004FF480710948FFF776FFFFF778FF4FF44A
:1017000000710648FFF76DFFFFF771FF4FF480711E
:101710000248FFF766FFFFF76AFF10BD000C0140AB
:1017200010B54FF400710848FFF75BFF4FF480716C
:101730000548FFF758FFFFF75AFF4FF400710248C2
:10174000FFF751FF10BD0000000C014010B54FF431
:1017500000710A48FFF747FFFFF749FF4FF4807118
:101760000648FFF740FFFFF742FF4FF48071034840
:10177000FFF737FFFFF73BFF10BD0000000C0140F3
:1017800008B50121082000F057FA4FF48070ADF839
:10179000000014208DF8030003208DF80200694634
:1017A0004148FFF78AFE4FF480713F48FFF71BFF67
:1017B0004FF40070ADF8000069463B48FFF77DFE2E
:1017C0004FF400713848FFF70EFFC82000F03CFBD3
:1017D0000021AE2000F013FA0021084600F00FFAB5
:1017E0000021102000F00BFA0021402000F007FA41
:1017F0000021812000F003FA0021CF2000F0FFF942
:101800000021A12000F0FBF90021C82000F0F7F929
:101810000021A62000F0F3F90021A82000F0EFF944
:1018200000213F2000F0EBF90021D32000F0E7F980
:101830000021084600F0E3F90021D52000F0DFF98F
:101840000021802000F0DBF90021D92000F0D7F939
:101850000021F12000F0D3F90021DA2000F0CFF9C7
:101860000021122000F0CBF90021DB2000F0C7F9A5
:101870000021302000F0C3F90021202000F0BFF942
:101880000021022000F0BBF900218D2000F0B7F903
:101890000021142000F0B3F9FFF7D0FE0021AF20A3
:1018A00000F0ADF908BD0000000C014070B5002447
:1018B0002BE004F1B001C8B2002100F0A0F9002132
:1018C000084600F09CF90021102000F098F9FFF77D
:1018D00009FF782000F01EF8FFF738FF402000F0E5
:1018E00019F8FFF733FF002509E0094901EBC501AD
:1018F000085D00F00FF8FFF729FF681CC5B2802DC6
:10190000F3DBFFF70DFF601CC4B2082CD1DB70BD08
:101910000400002070B5044600251FE004F080009C
:1019200028B14FF400710F48FFF75DFE04E04FF45B
:1019300000710C48FFF755FEFFF759FE4FF4807118
:101940000848FFF750FEFFF752FE4FF4807105483C
:10195000FFF747FE6006040E681CC5B2082DDDDBEC
:1019600070BD0000000C01402DE9FE4F074688467F
:1019700092461C460197CDF80080082C02D14FF00A
:1019800006091FE02046E31704EB5373DB102146E2
:101990004FEAE47C04EB5C7C4FEAEC0CA4EBCC0C4F
:1019A000BCF1000F02D04FF0010C01E04FF0000C31
:1019B0006344224604EBD27C4FEA6C0C03FB0CF32D
:1019C00003F0FF09AAF12000C6B200255EE0082C52
:1019D00007D106EB4600304901EB400010F805B096
:1019E0001DE00C2C07D106EB46002C4901EB8000D2
:1019F00010F805B013E0102C05D1294800EB0610B3
:101A000010F805B00BE0182C07D106EBC6002549ED
:101A100001EB800010F805B001E0BDE8FE8F00206A
:101A200002901CE00BF0010028B1414638460C9AA8
:101A3000FFF71CFE09E00C9808B9012000E0002027
:101A4000024641463846FFF711FE4FEA6B0B08F19C
:101A5000010000F0FF080298401CC0B202900298FA
:101A60000828DFDB781CC7B2082C0BD004EBD4713C
:101A70004A100199791A8A4204D1019F00980830CE
:101A8000C0B20090DDF80080681CC5B24D459EDBF9
:101A9000FFF70CFF00BFC0E7F62400081E27000870
:101AA000922B0008823100082DE9FC5F074688462A
:101AB00016461C46BB46CDF804802046E21704EBD0
:101AC0005272D2102146E31704EB5373DB10A4EBE0
:101AD000C3030BB1012300E000231A44624392B216
:101AE0000092002555E0102C05D12D4800EB461042
:101AF00010F805A01BE0182C07D106EBC6002949F9
:101B000001EBC00010F805A011E0202C05D12648FB
:101B100000EBC61010F805A009E0402C05D12348C1
:101B200000EB462010F805A001E0BDE8FC9F4FF057
:101B300000091CE00AF0010028B1414638460C9A21
:101B4000FFF794FD09E00C9808B9012000E000209F
:101B5000024641463846FFF789FD4FEA6A0A08F116
:101B6000010000F0FF0809F1010000F0FF09B9F1E0
:101B7000080FDFDB781CC7B2A7EB0B00A04204D133
:101B80005F4601980830C0B20190DDF80480681CFF
:101B900085B200988542A6DBFFF788FE00BFC4E748
:101BA000DE3E00081E43000866430008E6430008C6
:101BB0002DE9F84306460F4614461D46DDF8208001
:101BC00013E0CDF8008022782B4639463046FFF7E7
:101BD000CBFE082D02D1B01DC6B205E0284605EBAC
:101BE000D07106EB6101CEB2641C2078202802DBA4
:101BF00020787E28E5DDFFF759FEBDE8F88370B553
:101C000005460C46FFF76EFD7820FFF783FEFFF7D1
:101C10009DFD1CB14020FFF77DFE02E00020FFF794
:101C200079FEFFF793FD2846FFF774FEFFF78EFD60
:101C3000FFF776FD70BD704729B1064A92690243ED
:101C4000044B9A6104E0034A92698243014B9A6112
:101C50007047000000100240704710B500F002F815
:101C600010BD00000CB500200190009033480068C2
:101C700040F480303149086000BF3048006800F40B
:101C8000003000900198401C0190009818B901980C
:101C9000B0F5A06FF1D12948006800F4003010B110
:101CA0000120009001E0002000900098012843D11D
:101CB0002348006840F01000214908600846006889
:101CC00020F0030008600846006840F00200086049
:101CD0001A48406819494860084640684860084604
:101CE000406840F4806048600846406820F47C10FA
:101CF00048600846406840F4E810486008460068BC
:101D000040F08070086000BF0C48006800F0007070
:101D10000028F9D00948406820F0030007494860CE
:101D20000846406840F00200486000BF0348406831
:101D300000F00C000828F9D10CBD00000010024092
:101D400000200240042808D14FF0E021096941F049
:101D500004014FF0E022116107E04FF0E021096932
:101D600021F004014FF0E02211617047704700003C
:101D700010B51348006840F001001149086008469A
:101D80004068104908400E494860084600680E49FE
:101D900008400B4908600846006820F4802008606D
:101DA0000846406820F4FE0048604FF41F00886039
:101DB000FFF753FF4FF000600449086010BD0000BA
:101DC000001002400000FFF8FFFFF6FE08ED00E003
:101DD00000BFFEE7490050EAC12018BF04204A0DA9
:101DE00018BF40F0010040F2FF72B2EB515F08BF34
:101DF00040F00200012808BF0520704730380A284B
:101E000001D20120704700207047000010B5044641
:101E10006FF00400FFF796FFE11704EB5171C1F377
:101E2000C701074A11701046007800EB4001C1EB72
:101E3000C0104FF6FF7101EAC0000249088010BDD2
:101E4000000000200200002001460D4A12884A438B
:101E50004FF0E0235A6100229A6101221A6100BF0B
:101E60004FF0E022106900F001021AB100F4803254
:101E7000002AF5D000224FF0E0231A619A617047E2
:101E80000200002001460D4A12784A434FF0E02339
:101E90005A6100229A6101221A6100BF4FF0E022CC
:101EA000106900F001021AB100F48032002AF5D066
:101EB00000224FF0E0231A619A6170470000002071
:101EC00086B0354B0FCBCDE90423CDE902010024C8
:101ED0004820FFF79BFFFFF793FBFFF751FC3220F1
:101EE000FFF7B2FFFFF7AAFB0120102300221146E3
:101EF00000901046FFF7D8FD012010230246002174
:101F000000901846FFF7D0FD012010233A2200214F
:101F100000902820FFF728FD15E0012010231FA2C4
:101F2000002100900846FFF743FEC820FFF78CFF12
:101F3000012010231DA2002100903C20FFF738FE55
:101F4000C820FFF781FFFFF7F3F90028E5D14FF430
:101F50007A70FFF779FF1EE0FFF7A0F904462046EC
:101F600000F064FA8046144900F09EF9054600F03E
:101F70006FF9064632460B4610A102A8FEF730F96B
:101F80000120102302AA002100903C20FFF710FE40
:101F90006420FFF759FFDFE7E84500084453313874
:101FA000423230204572726F7200000020202020E3
:101FB00020202020000000000000204125342E3188
:101FC000662020202000000010B500290AD00878E3
:101FD000002807D005487844FEF722FD002801D0EC
:101FE000002010BD0248784410BD0000D626000035
:101FF000CE2600004FEA41034FEA5353A3F5806316
:10200000D3F11E03C8BFD3F1210C0CDD4FF0004209
:1020100042EAC12242EA505232FA03FC8CEAE17CE5
:10202000ACEBE1707047102BC4BF0020704703F584
:10203000787CBCF1FF3F04D06FF0004282EA2100BF
:10204000704770B500F0B0F84992248000207047C6
:10205000F2E70000DFF848C170B51CEA111E1EBF90
:102060001CEA13159EEA0C0F95EA0C0F00F06F8026
:1020700081EA030423EA4C134EEAD47E21EA4C1190
:1020800041F4801143F48013AE44A1FB024CA0FB49
:102090000365AEF17F7E361955EB0C05A1FB034CB1
:1020A0004CF10003A0FB021C16EB0C06654153F13A
:1020B0000003094218BF46F0010613F4007F0BD15C
:1020C0004FEA03314FEA0530340341EA155140EA43
:1020D00016506FF003020AE04FEAC3214FEAC52011
:1020E000F40241EA555140EA56506FF0020202EB09
:1020F0002E4201EB025585EACE710AD05FEA440C0C
:1021000018BF24F0004450F1000041F1000120EA22
:10211000D47040F2FE7C624500D270BDA84214BF6C
:102120004FF080444FF04044002E08BF0024BEF121
:10213000806FA8BFA1F1C041BDE8704080F28280ED
:102140004FF0000001F1C04101F0004170479EEAEC
:102150000C0F0CEA131518BF95EA0C0F06D04FF0C0
:10216000000081EA030E0EF0004170BD00F01CF883
:102170008900013E00F007B800F009B84FEA430CAF
:102180005FEA5C5C08D081EA030100F05BB84FEACB
:10219000410C5FEA5C5CF6D14FF0000001497047EA
:1021A0000000FF070000F87F0EF1020E2EF0030E74
:1021B0005EF8046B364205D4012A43EB030515F59E
:1021C000001F12D8012841EB010C1CF5001F0CD890
:1021D0000ED14FEAD17C15F5001F0CEB4C0C0CF125
:1021E000020C08BF4CEBD37C04E04FF0080C01E07C
:1021F0004FEAD37C0CEB4C0526FA05F606F00706F1
:10220000B6F1040C06D20EEB860CBDE870404CF023
:10221000010C6047DFE80CF0090B02024FF00041AF
:102220004FF00000A1F5002170BD194610460128AD
:1022300051EB010418BFD4F5001484BF002001F055
:10224000004170BD0808A0F500114FEA3101704748
:1022500043004FEAD30C4FEA3C0C43401FBF4007FA
:102260000CF1605113F0FE4F70471CF0006F03D16A
:1022700000200CF0004170470CF0004343EA50701E
:1022800010B540EACC0000F0E9F800BF0000009271
:102290004FEA0001FFF7D6BF4FF000414FF00000BA
:1022A000A1F50021704700004FF47F0C1CEAD0120A
:1022B0001EBF1CEAD11392EA0C0F93EA0C0F00F038
:1022C000858090EA010F48BF42F4807240F4000C10
:1022D00041F400002CF07F4120F07F4000B58142A6
:1022E000A2EB03020FF2081CACEB504EC0F1000051
:1022F0009EF800E04FEA4E0E00FB0EFC38BF49008E
:102300004FEA2C1C02F5FA020CFB0EF34FEACE1E2C
:102310004FEA112C4FEAC1210EEB635E42EB2242E1
:102320000EFB0CFC4FEA1C5300FB03114FEA112C6F
:102330004FEA01310EFB0CFC4FEADC4C00FB0C11A8
:10234000C14228BF09184CEB03335DF804EB10EBD6
:10235000410143EBC250B2F57C0F38BF704729D51D
:1023600012F0F00F1CBF00F1C04000F000407047B9
:10237000008182838485868788898B8C8D8E8F915E
:102380009293959697999A9C9D9FA0A2A3A5A7A882
:10239000AAACAEB0B2B3B5B7B9BCBEC0C2C5C7C9AE
:1023A000CCCED1D4D7D9DCDFE2E6E9ECF0F3F7FA12
:1023B000FE0000004FEA400C0CF1807CBCF17E4F27
:1023C00028BF7047B0F1C04000F08EB890EA010F0E
:1023D0000CEAD11348BF42F48072624538BF6345AE
:1023E00007D213F47F0F16D080EA010000F00040FE
:1023F000704710B500F032F8097EFC3E00F005B8D9
:1024000080EA010000F00040704780EA010000F01F
:10241000004000F069B812F47F0F04BF0248704713
:1024200080EA010000F060B80000C07F10F00041B9
:1024300048BF4042B0FA80F310FA03F2C3F19D03A3
:102440000BD051EAC35101EB1220530638BF70473D
:1024500000F1010008BF20F0010070470EF1020EEC
:102460002EF0030E5EF8044B244204D44FEA4102DE
:10247000B2F17F4F11D84FEA4003B3F17F4F0CD830
:102480000ED14FEAD07CB2F17F4F0CEB4C0C0CF12B
:10249000020C08BF4CEBD17C04E04FF0080C01E0CB
:1024A0004FEAD17C0CEB4C0324FA03F404F007044C
:1024B000B4F1040C06D20EEB840CBDE810404CF0D5
:1024C000010C6047DFE80CF0070802024FF0004003
:1024D000A0F5800010BD0846420018BFD2F18072FE
:1024E00088BF00F0004010BDFF2141EAD050C00578
:1024F0007047FEF713B80000000000000000002F36
:10250000000000000700070000147F147F1400245F
:102510002A7F2A120062640813230036495522508C
:1025200000000503000000001C22410000004122C1
:102530001C000014083E08140008083E08080000AB
:1025400000A06000000808080808000060600000A3
:10255000002010080402003E5149453E0000427F21
:102560004000004261514946002141454B3100186D
:1025700014127F10002745454539003C4A4949302F
:1025800000017109050300364949493600064949E9
:10259000291E0000363600000000563600000008F4
:1025A00014224100001414141414000041221408D1
:1025B00000020151090600324959513E007C1211B6
:1025C000127C007F49494936003E41414122007F4B
:1025D0004141221C007F49494941007F0909090105
:1025E000003E4149497A007F0808087F0000417F8A
:1025F0004100002040413F01007F08142241007F3C
:1026000040404040007F020C027F007F0408107FA2
:10261000003E4141413E007F09090906003E41510B
:10262000215E007F091929460046494949310001C8
:10263000017F0101003F4040403F001F2040201F1C
:10264000003F4038403F00631408146300070870DF
:10265000080700615149454300007F414100005592
:102660002A552A55000041417F000004020102045E
:10267000004040404040000001020400002054544B
:102680005478007F4844443800384444442000389B
:102690004444487F00385454541800087E0901020D
:1026A0000018A4A4A47C007F080404780000447DE2
:1026B0004000004080847D00007F1028440000001E
:1026C000417F4000007C04180478007C08040478F2
:1026D00000384444443800FC2424241800182424DE
:1026E00018FC007C080404080048545454200004DA
:1026F0003F444020003C4040207C001C2040201CE7
:10270000003C4030403C004428102844001CA0A05D
:10271000A07C004464544C44141414141414000099
:10272000000000000000000000000000FC000000AD
:10273000000002000000000C020C0200000000007B
:10274000000090D0BCD0BC9000030003000018240F
:10275000FE448C000302070201001824D8B04C800C
:10276000000300010201C038E438E0000102020168
:102770000202080600000000000000000000000047
:1027800000F80402000000010204000204F8000046
:102790000004020100009060F86090000000010059
:1027A00000002020FC2020000000010000000000AC
:1027B000000000000806000000002020202020006B
:1027C0000000000000000000000000000002000007
:1027D00000000080601C0200040300000000F804F8
:1027E0000404F8000102020201000008FC000000DD
:1027F00000020302000018844424180003020202AD
:10280000020008042424D80001020202010040B0A2
:1028100088FC80000000000302003C242424C40043
:10282000010202020100F824242CC000010202026D
:1028300001000C04E41C0400000003000000D82484
:102840002424D80001020202010038444444F80064
:10285000000302020100000010000000000002005E
:102860000000000020000000000006000000002022
:1028700050880402000000000102909090909000A7
:102880000000000000000002048850200002010047
:1028900000001804C4241800000002000000F8041E
:1028A000E494F80001020202020000E09CF08000C3
:1028B00002030000030204FC2424D80002030202E5
:1028C0000100F80404040C0001020202010004FCEF
:1028D0000404F80002030202010004FC24740C004A
:1028E00002030202030004FC24740C000203020031
:1028F0000000F0080444CC4000010202010004FC86
:102900002020FC040203000003020404FC04040071
:10291000020203020200000404FC0404060404038F
:10292000000004FC24D00C0402030200030204FC97
:1029300004000000020302020203FC3CC03CFC0055
:1029400003000300030004FC30C4FC040203020083
:102950000300F8040404F80001020202010004FC70
:1029600024241800020302000000F8848404F80004
:1029700001020207050004FC24649800020302001F
:102980000302182424448C000302020201000C04F8
:10299000FC040C0000020302000004FC0000FC0424
:1029A000000102020100047C80E01C04000003001E
:1029B00000001CE03CE01C00000300030000049C3D
:1029C000609C0400020300030200041CE01C0400DD
:1029D0000002030200000C84641C040002030202D3
:1029E00003000000FE020200000007040400000EC5
:1029F00030C00000000000010200000202FE0000E2
:102A000000040407000000040204000000000000AD
:102A10000000000000000000080808080808000086
:102A2000020000000000000000000040A0A0C00064
:102A300000010202030204FC2020C0000003020285
:102A4000010000C02020600000010202020000C05E
:102A50002024FC0000010202030200C0A0A0C0006C
:102A60000001020202000020F824240400020302F4
:102A700002000040A0A0602000070A0A0A0404FC2B
:102A80002020C0000203020003020020E400000036
:102A9000000203020000000020E40000080808070C
:102AA000000004FC80E02020020302000302040472
:102AB000FC000000020203020200E020E020C0004F
:102AC00003000300030020E02020C00002030200F6
:102AD000030200C02020C00000010202010020E02B
:102AE0002020C000080F0A02010000C02020E000E2
:102AF0000001020A0F0820E040202000020302002B
:102B000000000060A0A020000002020203000020DC
:102B1000F820000000000102020020E00020E00098
:102B200000010202030220E0208060200000030177
:102B300000006080E080600000030003000020606F
:102B40008060200002030003020020E0208060205B
:102B50000808070100000020A06020000002030216
:102B60000200000020DE0200000000070400000058
:102B700000FF00000000000F00000002DE20000047
:102B8000000407000000020102040402000000002B
:102B90000000000000000000000000000000000035
:102BA0000000000000F800000000000000333000CA
:102BB000000000100C06100C0600000000000000D1
:102BC000000040C07840C0784000043F04043F0447
:102BD0000400007088FC08300000001820FF211E4F
:102BE0000000F008F000E018000000211C031E2186
:102BF0001E0000F00888700000001E212324192701
:102C0000211010160E00000000000000000000005F
:102C10000000000000E01804020000000007182077
:102C2000400000020418E0000000004020180700E7
:102C30000000404080F0804040000202010F01028D
:102C40000200000000F0000000000101011F01016E
:102C50000100000000000000000080B070000000D3
:102C6000000000000000000000000001010101015F
:102C700001010000000000000000003030000000F2
:102C800000000000000080601804006018060100C9
:102C9000000000E010080810E000000F10202010D5
:102CA0000F00001010F8000000000020203F20203E
:102CB00000000070080808887000003028242221D5
:102CC000300000300888884830000018202020118B
:102CD0000E000000C02010F8000000070424243F6C
:102CE000240000F808888808080000192120201115
:102CF0000E0000E0108888180000000F112020113D
:102D00000E0000380808C83808000000003F000026
:102D100000000070880808887000001C2221212211
:102D20001C0000E010080810E00000003122221111
:102D30000F00000000C0C0000000000000303000A4
:102D40000000000000800000000000008060000023
:102D5000000000008040201008000001020408105C
:102D6000200040404040404040000404040404046B
:102D70000400000810204080000000201008040219
:102D80000100007048080808F0000000003036011B
:102D90000000C030C828E810E000071827242314DA
:102DA0000B000000C038E0000000203C2302022796
:102DB000382008F8888888700000203F20202011E3
:102DC0000E00C0300808080838000718202020101E
:102DD000080008F808080810E000203F2020201014
:102DE0000F0008F88888E8081000203F20202320E2
:102DF000180008F88888E8081000203F2000030029
:102E00000000C03008080838000007182020221EE3
:102E1000020008F808000008F808203F21010121FD
:102E20003F20000808F8080800000020203F20206C
:102E3000000000000808F8080800C08080807F00BB
:102E4000000008F888C028180800203F2001263814
:102E5000200008F8080000000000203F202020206B
:102E6000300008F8F800F8F80800203F003F003F65
:102E7000200008F830C00008F808203F200007189C
:102E80003F00E01008080810E0000F10202020107C
:102E90000F0008F808080808F000203F2101010190
:102EA0000000E01008080810E0000F182424385033
:102EB0004F0008F8888888887000203F2000030CA5
:102EC00030200070880808083800003820212122AE
:102ED0001C00180808F8080818000000203F20000F
:102EE000000008F808000008F808001F2020202033
:102EF0001F000878880000C83808000007380E0155
:102F00000000F80800F80008F800033C0700073C40
:102F10000300081868808068180820302C03032CF0
:102F200030200838C800C83808000000203F2000C2
:102F3000000010080808C838080020382621202082
:102F40001800000000FE020202000000007F404066
:102F50004000000C30C000000000000000010638F6
:102F6000C00000020202FE000000004040407F005E
:102F70000000000004020202040000000000000043
:102F80000000000000000000000080808080808041
:102F90008080000202040000000000000000000029
:102FA000000000008080808000000019242222227E
:102FB0003F2008F8008080000000003F1120201111
:102FC0000E000000008080800000000E11202020F4
:102FD0001100000000808088F800000E11202010F1
:102FE0003F200000808080800000001F22222222DB
:102FF0001300008080F0888888180020203F20205F
:1030000000000000808080808000006B9494949386
:10301000600008F8008080800000203F2100002030
:103020003F2000809898000000000020203F2020D2
:103030000000000000809898000000C08080807F21
:10304000000008F8000080808000203F24022D301E
:103050002000000808F8000000000020203F202089
:1030600000008080808080808000203F20003F2002
:10307000003F8080008080800000203F21000020F1
:103080003F200000808080800000001F2020202042
:103090001F00808000808000000080FFA1202011A0
:1030A0000E000000008080808000000E112020A013
:1030B000FF80808080008080800020203F212000D1
:1030C00001000000808080808000003324242424BC
:1030D0001900008080E0808000000000001F202098
:1030E00000008080000000808000001F2020201051
:1030F0003F20808080000080808000010E30080624
:10310000010080800080008080800F300C030C3034
:103110000F0000808000808080000020312E0E3162
:103120002000808080000080808080818E70180662
:10313000010000808080808080000021302C2221CE
:10314000300000000000807C020200000000003F10
:10315000404000000000FF00000000000000FF00F1
:1031600000000002027C800000000040403F0000A0
:10317000000000060101020204040000000000003B
:10318000000000000000000000000000000000003F
:10319000000000000000000000000000000000002F
:1031A0000000000000000000000000F0F0F000004F
:1031B00000000000000000017F010000000000008E
:1031C0000000001C1C1C0000000000008060301C7F
:1031D0008C60301C0C0000000000000000000000AB
:1031E00000000000000000000000000000000000DF
:1031F00000E00000000000E000000086E69F8686F8
:103200008686E69F860000011F01010101011F0162
:103210000100000080C06020F820E0C00000000035
:1032200003070C18FF70E18100000000070F101069
:103230007F100F0700008060206080000000E02009
:1032400000000F3020309F70DC371030C0000000CD
:10325000100E03000718101807000000C02020E01F
:10326000C0000000000080E01F38E88703C43C0471
:103270000000070F1810100B070D10100800008039
:103280008C4C38000000000000000000000000002E
:10329000000000000000000000000000000000002E
:1032A000000000000000000080E030080400000082
:1032B000000000FEFF010000000000000000000010
:1032C000030F1820400000040830E08000000000D8
:1032D00000000000000001FFFE00000000000040B0
:1032E00020180F0300000000000000000000000094
:1032F000C00000000000004266663C18FF183C66F3
:103300006642000000000000030000000000000012
:1033100000000000800000000000001010101010DD
:10332000FF1010101010000000000000030000004B
:10333000000000000000000000000000000000008D
:103340000000000000000000000000808C4C3800ED
:10335000000000000000000000000000000000006D
:1033600000000010101010101010101010000000BD
:10337000000000000000000000000000000000004D
:10338000000000000000000000000000000000003D
:10339000000000001C1C1C000000000000000000D9
:1033A000000000000000E0380C0000000000807009
:1033B0001C03000000000060380E01000000000047
:1033C0000000000080C060202060C080000000FE7F
:1033D000FF010000000001FFFE000001070E1810B1
:1033E00010180E0701000000808080C0E00000007F
:1033F00000000000000000FFFF00000000000000CF
:103400001010101F1F1010100000008040202020FE
:103410002060C080000000030300804020381F07A8
:103420000000001C1A1918181818181F0000008036
:10343000C020202060C080000000000303001010A6
:10344000182FE780000000070F10101010180F074A
:103450000000000000000000C0E0F000000000C01C
:10346000B088868180FFFF8080000000000000108F
:10347000101F1F1010000000E0606060606060605E
:10348000000000003F1008080818F0E000000007E6
:103490000B101010101C0F030000000080C0402013
:1034A0002020E0C0000000FCFF211008080818F0F0
:1034B000E0000001070C18101010080F03000000B6
:1034C000C0E06060606060E0600000000300000039
:1034D000E0180700000000000000001F1F000000AF
:1034E00000000080C0602020202060C08000008795
:1034F000EF2C1818303068CF830000070F08101029
:103500001010180F07000000C0C020202020C0802D
:103510000000001F3F604040402010FFFE00000000
:103520000C1C101010080F03000000000000000029
:1035300000000000000000000000000E0E0E000061
:10354000000000000000001C1C1C00000000000027
:103550000000000000000000000000000000000C5F
:103560000C000000000000000000005838000000BF
:10357000000000000000000000804020100000005B
:10358000102844820100000000000000000000003C
:10359000010204081000000000000000000000000C
:1035A00000000084848484848484848484000000F3
:1035B000000000000000000000000000102040801B
:1035C000000000000000000000000000018244280C
:1035D000100000001008040201000000000000C0FC
:1035E00020201010101030E0C0000003030000F095
:1035F00010080C070300000000001C1C1C00000049
:103600000000000000C0406020202040C00000FCFE
:10361000FF01F00E03C1FE03807F0001070E0811B9
:103620001110110904020000000080E0E000000019
:1036300000000000807C4340477FF88000001018A5
:103640001F1000000000131F1C1020E0E0202020AD
:103650002060C080000000FFFF10101010182FE73E
:103660008000101F1F1010101010180F070000000E
:1036700080C0402020202060E00000FCFF0100000E
:103680000000000001000001070E181010100804CF
:10369000030020E0E02020202040C080000000FF48
:1036A000FF000000000001FFFE00101F1F1010109F
:1036B00018080E07010020E0E020202020202060D4
:1036C000800000FFFF101010107C00000000101F91
:1036D0001F10101010101018060020E0E02020200D
:1036E00020206060800000FFFF101010107C0000A0
:1036F0000100101F1F10000000000000000000006B
:1037000080C06020202040E0000000FCFF0100009D
:103710004040C0C140400001070E181010100F0FAC
:10372000000020E0E0200000000020E0E02000FF9A
:10373000FF101010101010FFFF00101F1F100000CE
:103740000000101F1F100000202020E0E02020209B
:1037500000000000000000FFFF000000000000006B
:103760001010101F1F10101000000000000020207B
:1037700020E0E020202000000000000000FFFF000B
:1037800000000060E0808080C07F3F00000020E0FB
:10379000E020000020A06020200000FFFF30187C07
:1037A000E3C000000000101F1F10000001131F1CC9
:1037B000181020E0E020000000000000000000FFE2
:1037C000FF000000000000000000101F1F1010107C
:1037D00010101018060020E0E0E000000000E0E01B
:1037E000E02000FF013FFEC0E01E01FFFF00101FB0
:1037F0001000031F0300101F1F1020E0E0C0000096
:1038000000000020E02000FF0003071C78E080009B
:10381000FF00101F100000000000030F1F00000039
:1038200080C060202060C080000000FEFF0100001A
:10383000000000FFFE000001070E181010180C0712
:10384000010020E0E0202020202060C0800000FF58
:10385000FF2020202020301F0F00101F1F1000000D
:10386000000000000000000080C060202060C080D8
:10387000000000FEFF010000000000FFFE0000014C
:10388000070E1111133C7C67210020E0E02020206E
:10389000202060C0800000FFFF101030F0D0080F23
:1038A0000700101F1F10000000030F1C10100080E5
:1038B000C060202020204040E00000070F0C1818B6
:1038C000303060E08100001F0C0810101010180F3D
:1038D00007008060202020E0E020202060800100A0
:1038E000000000FFFF000000000100000000101FAA
:1038F0001F100000000020E0E02000000000002079
:10390000E02000FFFF00000000000000FF000007B3
:103910000F1810101010100807002060E0E02000C1
:10392000000020E060200000077FF88000807C031A
:10393000000000000000071F1C070000000020E03E
:10394000E02000E0E0200020E0200007FFF8E01F7A
:10395000FFFCE01F00000000031F0300011F030025
:103960000000002060E0A0000020E06020000000D7
:1039700000038F7CF8C6010000000010181E130021
:1039800001171F1810002060E0E02000000020E078
:103990006020000001073EF8E0180700000000006A
:1039A0000010101F1F101000000000806020202059
:1039B00020A0E0E0200000000000C0F03E0F030067
:1039C000000000101C1F1710101010180600000037
:1039D000000000FC0404040404000000000000FFD8
:1039E00000000000000000000000007F4040404058
:1039F0004000000010E00000000000000000000097
:103A00000000031C608000000000000000000000B7
:103A100000030C70800000000404040404FC000097
:103A2000000000000000000000FF00000000000097
:103A300040404040407F0000000000000010080CA3
:103A4000040C08100000000000000000000000004E
:103A50000000000000000000000000000000000066
:103A60000000000000000000000000000000000056
:103A70000000000000008080808080808080808046
:103A8000808000000004040808000000000000001E
:103A90000000000000000000000000000000000026
:103AA0000000000000000000000000000000000016
:103AB0000000000098D844642424FCF80000000FA3
:103AC0001F18101010081F1F10180020E0F0000031
:103AD0000000000000000000FFFF180804040CF8BC
:103AE000F00000001F0F18101010180F0300000046
:103AF0000000000000000000000000E0F8180404CE
:103B0000043C3800000000030F0C101010100806D1
:103B100000000000000000000020E0F0000000E0D5
:103B2000F81C04040408FFFF000000030F18101025
:103B300010081F0F08000000000000000000000037
:103B400000000000E0F8484444444C787000000055
:103B5000030F0C181010100804000000000080C0B3
:103B6000602020E0C00000040404FFFF04040404FB
:103B70000000000010101F1F1010100000000000B7
:103B800000000000000000000000000070F88C043D
:103B9000048CF874040C007076CF8D8D8D89C878F4
:103BA00070000020E0F000000000000000000000B5
:103BB000FFFF08040404FCF8000000101F1F1000A1
:103BC00000101F1F100000000000006060000000D7
:103BD00000000000040404FCFC00000000000000E1
:103BE0001010101F1F101010000000000000000037
:103BF00000606000000000000000040404FCFC0001
:103C000000000000C0C08080C07F3F000000002096
:103C1000E0F000000000000000000000FFFF80C096
:103C2000F41C0404000000101F1F1100031F1C10CF
:103C300010000000202020E0F00000000000000044
:103C4000000000FFFF000000000000001010101F27
:103C50001F10101000000000000000000000000015
:103C6000000004FCFC0804FCFC0804FCFC00101F21
:103C70001F10001F1F10001F1F1000000000000079
:103C80000000000000000004FCFC08080404FCF82C
:103C9000000000101F1F100000101F1F1000000068
:103CA0000000000000000000000000E0F0180C041C
:103CB000040C18F0E00000030F0C101010100C0F93
:103CC00003000000000000000000000000000004ED
:103CD000FCFC080404040CF8F0000080FFFF88904E
:103CE00010101C0F03000000000000000000000086
:103CF000000000E0F81C04040408F8FC00000003C5
:103D00000F1810109088FFFF8000000000000000D6
:103D1000000000000000040404FCFC100804040C73
:103D20000C001010101F1F101010000000000000E9
:103D30000000000000000000000000003078CCC44B
:103D40008484840C1C0000001E1810101011190F20
:103D500006000000000000C0000000000000000499
:103D60000404FFFF040404000000000000000F1F13
:103D70001010100C00000000000000000000000007
:103D800000000004FCFE00000004FCFE0000000037
:103D90000F1F181010081F0F08000000000000007F
:103DA00000000000000000040C3CFCC40000C43C07
:103DB0000C0400000000010F1E0E010000000000B6
:103DC00000000000000000000000043CFCC400E40F
:103DD0007CFC84807C040000071F070000071F078D
:103DE00000000000000000000000000000000004CF
:103DF000041C7CE4C0341C0404000010101C1601D8
:103E0000131F1C181000000000000000000000003C
:103E1000000000040C3CFCC400C43C04040000008E
:103E2000C080C1370E01000000000000000000004B
:103E300000000000000000001C0404C4F47C1C040A
:103E400000000000101C1F17111010180E000000B9
:103E50000000000000F80C0400000000000000104A
:103E600028EF00000000000000000000003F60405C
:103E70000000000000000000FF0000000000000043
:103E800000000000FF000000000000000000000033
:103E9000FF00000000000000040CF800000000001B
:103EA000000000000000EF281000000000000000EB
:103EB00040603F00000000000000001806020204FD
:103EC0000810202030080000000000000000000062
:103ED0000000000000000000000000000000106072
:103EE000028C0000FE9292929292FE000000040466
:103EF0007E01407E42427E427E42427E4000000081
:103F0000FC242424FC252624FC2424240400403002
:103F10008F80844C55252525554C8080800010606D
:103F2000028C00FE929292929292FE000000040493
:103F30007E014448507F40407F5048444000000488
:103F40000474545455565454547404040000848327
:103F500041211D05050505057D818185E300404062
:103F6000424458C0407F40C0504846404000808096
:103F7000402018070000003F40404040780000FE0D
:103F8000424242FE0042A29E82A2C2BE0000806F58
:103F9000080828CF00002FC8080828CF0000000418
:103FA00004745454555654545474040400008483C7
:103FB00041211D05050505057D818185E300101062
:103FC000D0FF9014E4AFA4A4A4AFE4040000040361
:103FD00000FF00894B2A1A0E1A2A4B888000101005
:103FE00090909090901010FF10101116100000206B
:103FF00060203F10101000030C102040F80000005B
:1040000000F8888C8A89888888F800000000000001
:1040100000FF44444444444444FF00000000404442
:10402000C4444444401010FF101010F00000103C35
:10403000131014B840300E014080403F00000000D3
:104040002424242424FC2222222322000000020211
:1040500002020242827F0202020202020200404485
:10406000C4444444401010FF101010F00000103CF5
:10407000131014B840300E014080403F000004048B
:104080000484E43C2724242424E4040404000402DB
:104090000100FF0909090949897F000000000000AB
:1040A00000000000C03FC000000000000000804091
:1040B00020100C03000000030C1020408000004082
:1040C000424242C27E42C2424242404000008040E0
:1040D00020100C0300003F404040407000000000F2
:1040E00000000000C03FC000000000000000804051
:1040F00020100C03000000030C1020408000003E44
:1041000022E2223E00FE2222222222E20200203F60
:10411000201F1111007F44444444444740000404DC
:1041200004F484D4A5A6A4D484F40404040000FEFA
:104130000202123A1613121A3242827E0000000066
:1041400000808080BCFCFCBC8080800000000000FF
:10415000000000003E03033E0000000000000000DD
:1041600022322AA6A2622111098101000000004228
:1041700022130B42827E02020A12234600002030E4
:10418000AC63300088C8A8998E88A8C888002267C8
:104190002212128040300F00003F4040710040402A
:1041A00042CC0040A09E8282829EA020200000007F
:1041B000003F908840432C10284641808000001723
:1041C00015D55557557D555755D515170000404005
:1041D000407F555555555555557F4040400000008E
:1041E00000FE929292FE929292FE00000000080859
:1041F0000484621E010001FE020404080800020299
:10420000E22222F22E2222E22222E2020200000018
:10421000FF40407F4949497F4040FF00000000F8CF
:104220000122A0A2A222FE22AA3202FE000000FF6A
:104230000010130A4B20170C133880FF0000008079
:1042400060F80704E4A4A4BFA4A4E40400000100EF
:1042500000FF40407F4A4A4A4A4A7F40400000FCF3
:10426000848484FC001010101010FF101000003F18
:104270001010103F0000010640807F00000000F891
:10428000010600F0121212F2020202FE000000FF0C
:104290000000001F1111111F0040807F000000501E
:1042A0004CC878C84800F88888F800000000000270
:1042B000013E2A2A2B2A2A2A3E0000000000001074
:1042C000D85450D8003C5048446000000000000022
:1042D0003F05253F001F2824223800000000000071
:1042E0000040605048444040405060C00000000022
:1042F00000003F111111111111113F0000000000C9
:1043000000E000FC4020080808F808080000000051
:104310000020180708300020203F000000000000A7
:1043200000C080808080808080FC8480808080804D
:1043300080C0C0000000000000FF7F4040404040BF
:1043400040FF40404040404040FF7F0000000000F0
:104350000000000000000000007F7000000000006E
:10436000000000000000000000000000000000004D
:104370000000000000FCF800000000000000000049
:1043800000000000000000000000FFFE0202020228
:104390000202020202FFFF02020202020202020203
:1043A000FF0300000000000000001F1F04040404BD
:1043B0000404040404FFFF040404040404040404C7
:1043C0001F000000000000000000000000000000CE
:1043D00000000000007F3F0000000000000000001F
:1043E00000000000000000000000000000000000CD
:1043F00000000000000000000000000000000000BD
:10440000000000F8F8F0F07020000000000000004C
:10441000000000000000000000000000000000009C
:10442000000000000000000000000000000080000C
:10443000000000000000000000000000000000007C
:10444000000000FFFFFFFF00000000000000000070
:10445000000000000000000000008080000000005C
:10446000000000000000000000000000000000FF4D
:10447000FFFE0606060606060606060606060606EB
:10448000060606FFFFFFFF060606060606060606E8
:10449000060606060606060606FFFFFFFF070200E1
:1044A000000000000000000000000000000000FF0D
:1044B000FFFF0000000000000000000000000000FE
:1044C000000000FFFFFFFF000000000000000000F0
:1044D000000000000000000000FFFFFFFF000000E0
:1044E000000000000000000000000000000000FFCD
:1044F000FFFF18181818181818181818181818186E
:10450000181818FFFFFFFF1818181818181818188F
:10451000181818181818181818FFFFFFFF000000C7
:104520000000000000000000000000000000020188
:10453000010000000000000000000000000000007A
:10454000000000FFFFFFFF0000000000000000006F
:104550000000000000000000000101000000000059
:10456000000000000000000000000000000000004B
:10457000000000000000000000000000000000003B
:10458000000000FFFFFFFF0000000000000000002F
:10459000000000000000000000000000000000001B
:1045A000000000000000000000000000000000000B
:1045B00000000000000000000000000000000000FB
:1045C0000000001F1F0F0F0000000000000000008F
:1045D00000000000000000000000000000000000DB
:1045E00000000000000000002000000000000000AB
:1045F000000000000000000002400000000000A0D9
:104600000000000005400000000000C8000000009D
:104610000C4000000000409C000000001940000019
:104620000020BCBE0000000034400000BFC91B8E4B
:1046300000000004B5400000504BCFD06607E2CF29
:10464000010000006C4100003E8251AADFEEA73459
:1046500001000000D9420000DCB5A0E23A301F970B
:10466000FFFFFFFFB4450000FD25A0C8E9A3C14F2F
:10467000FFFFFFFFFF3F0000000000800000000080
:10468000FF3F00000000008000000000C846000856
:10469000000000200400000028010008CC460008AB
:1046A00004000020E40A0000440100081C0000008F
:1046B00043000000F8FFFFFF0C0000000E000000A8
:0C46C0000F0000002E00000000000000B1
:04000005080001A14D
:00000001FF
